:020000009E2937
:0E000600213083120313FD00FD0B07280800B4
:100014000F3083120313FC004730FD00FD0B102842
:0A002400FC0B10280000000008008B
:06002E00000000000800C4
:1000340083120313CF1B20288813212888174F1BF2
:100044002528081326280817CF1A2A2888122B28AF
:1000540088164F1A2F2808123028081649183428F1
:10006400071435280710071517200711CF193C2846
:1000740088133D2888174F19412808134228081768
:10008400CF1846288812472888164F184B2808127C
:100094004C2808164918502807145128071007152A
:1000A40017200711491C58280A2059280320080042
:1000B40083120313F801F9011030FC00710DF80DDF
:1000C400F90D7408F8027508031C750FF90203187A
:1000D40072287408F80775080318750FF9070310D8
:0A00E400F00DF10DFC0B6028080080
:1000EE008312031349104E08CF001A20491408003A
:0E00FE008312031348088A0047088200080096
:10010C0083120313A00A0319A10A00302102031D54
:10011C0091283C302002031CAF28A001A101A40AA5
:10012C000319A50A00302502031D9E283C30240229
:10013C00031CAF28A401A501A20A0319A30A0030CD
:10014C002302031DAB2818302202031CAF28A20186
:10015C00A3010A30F4000030F5002208F000230857
:10016C00F1005A2030307007A6000A30F40000303D
:10017C00F5002208F0002308F1005A207808F0005E
:10018C007908F10030307007A7000A30F400003015
:10019C00F5002408F0002508F1005A2030307007D3
:1001AC00A9000A30F4000030F5002408F0002508FE
:1001BC00F1005A207808F0007908F100303070070F
:1001CC00AA000A30F4000030F5002008F0002108E5
:1001DC00F1005A2030307007AC000A30F4000030C7
:1001EC00F5002008F0002108F1005A207808F000F2
:0C01FC007908F10030307007AD000800F9
:10020800831603130711071008128812081388139E
:1002180083120711071088130813881208120A207E
:100228000A200A20881608160715172007110A2021
:100238000715172007110A200715172007110A208C
:1002480008120715172007110A200715172007118C
:10025800881288170715172007110A20881308160F
:1002680007151720071108120715172007110A206C
:1002780007151720071108160715172007110A2058
:100288000812071517200711881708178816081667
:0C0298000715172007110A204914080060
:1002A4006429803083120313CA007729C030CA003E
:1002B40077299430CA007729D430CA00772980304E
:1002C400CA007729831203134A08013A03195329F0
:1002D4004A08023A031958294A08033A03195B29C0
:1002E4004A08043A03195E2961294B03F0004A08BD
:1002F400F0077008CA007008CF001A204910CD0119
:100304004D084C0784000008031990294D084C0738
:1003140084000008CE007720CD0A82294914080001
:100324007F208A110A128000840AC70A0319C80AA6
:08033400F003031D92290800EB
:10033C0008228316031307100711081288120813DA
:10034C008813871107128712071304210130CF007D
:10035C001A200C30CF001A208715071287120713AA
:10036C0086200130CA000130CB003830CC0052213D
:10037C000230CA000130CB002630CC0052210230B2
:10038C00CA000A30CB002F30CC0052210B30FB00BE
:10039C002630FC005D30FD00FD0BD229FC0BD22970
:0C03AC00FB0BD22900000000B629DB2961
:1004100020308400273083120313F000E130C7003E
:080420000130C8009221080020
:0403C2001E340034B1
:0403C6000A340034C1
:0403CA001E340034A9
:1003CE00303430343A34303430343A3430343034EB
:0203DE000034E9
:1003E000313434342F34313431342F3432343434E2
:0203F0000034D7
:1003F200533461346C346C34653420346434653481
:0E0402002034533470346F3472347434003448
:02400E007A3BFB
:00000001FF
