:02000000862B4D
:10000800FF00030E8301C7000A08C6008A017C08A6
:10001800A2007D08A1000408A3008B1C30288B10C7
:10002800B70A0319B80A87170130CC000130CD0090
:100038003930CE0051221F30FB007130FC001E30D9
:10004800FD00FD0B2528FC0B2528FB0B25280000AF
:1000580087130130D1003F210B1D40280B110130BF
:10006800AA02031CAB0300302B06031D3D280030F9
:100078002A06031D402874230B1C10290B10061E8A
:100088004C2887158B1683168111011481140115CC
:100098008312861EA92807160130CC00DD21102303
:1000A8000030F4000030F5000030F6007E30F70034
:1000B80091227008A6007108A7007208A8007308AA
:1000C800A9007008F4007108F5007208F6007308BA
:1000D800F7000030F0000030F1001630F2008630F2
:1000E800F3000122013003180030F00070080319F2
:1000F800A828A401A50180302506F00080307002F0
:10010800031D8828033024020318A8280530FB00A3
:100118000F30FC00F130FD00FD0B9028FC0B9028FF
:10012800FB0B902887150530FB000F30FC00F130E1
:10013800FD00FD0B9D28FC0B9D28FB0B9D288711BE
:10014800A40A0319A50A7F28AD280130D1003F2150
:100158000712061F0B2987160230CC00DD21102359
:10016800CD30F400CC30F5004C30F6007B30F70091
:1001780091227008AC007108AD007208AE007308D7
:10018800AF000030F4000030F5002030F600813078
:10019800F70001220130031C0030F0007008031939
:1001A8000A290130D1003F210130CC000130CD00B7
:1001B8003030CE005122A401A50180302506F00080
:1001C80080307002031DEA280330240203180A292C
:1001D8000530FB000F30FC00F130FD00FD0BF2286C
:1001E800FC0BF228FB0BF22887170530FB000F30B9
:1001F800FC00F130FD00FD0BFF28FC0BFF28FB0B7A
:10020800FF288713A40A0319A50AE1281029013039
:10021800D1003F21871287132208FC002108FD0026
:100228002308840046088A00470E8300FF0E7F0ECD
:020238000900BB
:0E023A00213083120313FD00FD0B2129080063
:100248000F3083120313FC004730FD00FD0B2A29F1
:0A025800FC0B2A290000000008003A
:060262000000000008008E
:08026800FA1FF2130030080038
:0E027000F201F101F001F801F3010030080085
:10027E0083120313D11B4529881346298817511B56
:10028E004A2908134B290817D11A4F2988125029C9
:10029E008816511A54290812552908164818592932
:1002AE0007145A290710071531210711D119612991
:1002BE0088136229881751196629081367290817A8
:1002CE00D1186B2988126C298816511870290812BA
:1002DE00712908164818752907147629071007156D
:1002EE0031210711481C7D2924217E291D2108005A
:1002FE007B15FB1F89290130F300F201F101F0019A
:08030E00FA0DF20CFF300800AB
:0E0316008312031345088A0044088200080081
:100324008312031348105008D1003F2148140800D9
:10033400A0017208031DAF297108F2007008F100D2
:10034400F001A0157208031DAF297108F200F10134
:10035400A011201672080319BD292008F302031DF9
:10036400031CC1290310F21BC529F00DF10DF20D78
:10037400F30BB529C1290130FC003821C82902300A
:0E038400FC007F21C8290430FC003421080051
:100392000E3083120313FD00FD0BCD29000008006F
:1003A200FB14FB1FDB29FF30F300F200F100F00029
:0803B200FA0DF20CFF30080007
:1003BA00831203139F01C0309F0483161F179F17D0
:1003CA0083124C08F000F00D7010F00D7010F00D53
:1003DA00701070089F041F14C9211F151F1DF729CB
:1003EA000000F3291F101E08F100F00183161E08F1
:0803FA00F0040030F1040800DA
:1004020083120313FA017308031D7A147708031D7C
:10041200FA147A0803194D2A033A0319182A7A188A
:10042200152AF61F4B2A492AF21F492A4B2A72081B
:100432008039FA00F21376088039F6137A06031926
:10044200262A7A080319492A4B2A770873020319C4
:100452002D2A031C412A452A760872020319342ADE
:10046200031C412A452A7508710203193B2A031C01
:10047200412A452A7408700203194D2A0318452A95
:10048200FA0803194B2A492AFA080319492A4B2A5E
:1004920003140800031008000314031508000800E1
:1004A200632A803083120313CC00762AC030CC003A
:1004B200762A9430CC00762AD430CC00762A80304A
:1004C200CC00762A831203134C08013A0319522AEC
:1004D2004C08023A0319572A4C08033A03195A2ABC
:1004E2004C08043A03195D2A602A4D03F0004C08B7
:1004F200F0077008CC007008D1003F214810CF01EE
:100502004F084E078400000803198F2A4F084E0730
:1005120084000008D0009221CF0A812A48140800E2
:1005220083120313FB017308031D77080319E82ADA
:1005320072087606FA007708F3077E30031CA52AB4
:10054200F3020318EB2AA82AF302031CEE2A72080C
:10055200F8007108FC007008FD00F817F617031088
:10056200F201F101F0011830A0007D1CC22A7408CA
:10057200F00775080318750FF10776080318760F50
:10058200F207F20CF10CF00CF80CFC0CFD0C031051
:10059200A00BB62AF21BD22AF80DF00DF10DF20DC6
:1005A200F3037B1B701CE42AF81FE42AF00A0319E8
:1005B200F10A0319F20A031DE42AF20CF10CF00C01
:1005C200F30A0319EB2AFA1FF2130030F02A013062
:1005D2003821F02A0230D121F02A04307F21000094
:0205E20008000F
:1005E4008B218A110A128000840AC40A0319C50ADD
:0805F400F003031DF22A0800C8
:1005FC00FF3083120313C900FF30CA00FF30CB0059
:10060C00FF309F01C0309F0483161F179F17831262
:04061C001F1408009F
:10062000831203137008F8007108F000F101F20161
:10063000F301FB01FC019630F300FA017008F100B0
:0C0640007808F000F801F2019A2108008F
:10064C008316031307110710081288120813881356
:10065C00831207110710881308138812081224211B
:10066C00242124218816081607153121071124216D
:10067C0007153121071124210715312107112421D8
:10068C0008120715312107112421071531210711F3
:10069C008812881707153121071124218813081691
:1006AC0007153121071108120715312107112421D3
:1006BC0007153121071108160715312107112421BF
:1006CC000812071531210711881708178816081604
:0C06DC00071531210711242148140800E3
:1006E8008312031387110712871287130713D83051
:1006F8008B0040308316810098308312AA00AB012A
:040708008101080063
:10070C0083120313A401A501A601A701A801A90145
:10071C00AA01AB01AC01AD01AE01AF014230B0009A
:10072C005230B1004130B2005630B3004F30B400FB
:10073C002130B500B601B701B8014230B9006930BB
:10074C00BA006530BB006E30BC007630BD00653041
:10075C00BE006E30BF007530C0006530C100213066
:10076C00C200C30183168711071287128713071360
:10077C000710071108128812081388132623FE226B
:06078C007423C72BC82BEB
:02400E007A3BFB
:00000001FF
