:020000000329D2
:0E000600213083120313FD00FD0B07280800B4
:100014000F3083120313FC004730FD00FD0B102842
:0A002400FC0B10280000000008008B
:06002E00000000000800C4
:1000340083120313B21B2028881321288817321B2C
:100044002528081326280817B21A2A2888122B28CC
:100054008816321A2F280812302808162C1834282B
:10006400071435280710071517200711B2193C2863
:1000740088133D2888173219412808134228081785
:10008400B218462888124728881632184B280812B6
:100094004C2808162C185028071451280710071547
:1000A400172007112C1C58280A205928032008005F
:0E00B400831203132B088A002A08820008001A
:1000C200831203132C103108B2001A202C140800DA
:1000D20083160313071107100812881208138813D6
:1000E20083120711071088130813881208120A20B6
:1000F2000A200A20881608160715172007110A2059
:100102000715172007110A200715172007110A20C3
:1001120008120715172007110A20071517200711C3
:10012200881288170715172007110A208813081646
:1001320007151720071108120715172007110A20A3
:1001420007151720071108160715172007110A208F
:10015200081207151720071188170817881608169E
:0C0162000715172007110A202C140800B4
:10016E00C928803083120313AD00DC28C030AD00E7
:10017E00DC289430AD00DC28D430AD00DC28803093
:10018E00AD00DC28831203132D08013A0319B82899
:10019E002D08023A0319BD282D08033A0319C02869
:1001AE002D08043A0319C328C6282E03F0002D0883
:1001BE00F0077008AD007008B2001A202C10B001C4
:1001CE0030082F07840000080319F52830082F0780
:1001DE0084000008B1006120B00AE7282C14080042
:1001EE005A208A110A128000840AAA0A0319AB0A3D
:0801FE00F003031DF7280800BF
:10020600423083120313A0006930A1006530A200BA
:100216006E30A3007630A4006530A5006E30A600CF
:100226007530A7006530A800A901831607100711CD
:10023600081288120813881369200130B2001A20A8
:100246000C30B2001A200130AD000130AE00203073
:08025600AF00B7202D292E296D
:02400E007A3BFB
:00000001FF
