:02000000912C41
:10000800FF00030E8301D4000A08D3008A017C088C
:10001800A2007D08A1000408A3008B1C45288B10B2
:10002800D501420AD600222383120313D5011623D1
:1000380070080313C2007008D500D6014630D700F7
:10004800932387170130D5000130D6002630D7001A
:10005800D6220230D5000130D6004630D700D6224D
:100068001F30FB007130FC001E30FD00FD0B3A28EC
:10007800FC0B3A28FB0B3A28000087130130E300F9
:1000880057210B1D55280B110130A402031CA50391
:1000980000302506031D522800302406031D55286C
:1000A800FD230B1C27290B10061E642887158B16A9
:1000B80083168112811101148114011583128101A3
:1000C800861EC02807160130D50051220F240030A3
:1000D800F4000030F5000030F6007E30F70075229D
:1000E8007008BC007108BD007208BE007308BF002C
:1000F8007008F4007108F5007208F6007308F7003C
:100108000030F0000030F1001630F2008630F300C5
:100118004323013003180030F00070080319BF288A
:10012800C001C10180304106F00080307002031D1B
:100138009F28033040020318BF280530FB000F300A
:10014800FC00F130FD00FD0BA728FC0BA728FB0BDA
:10015800A72887150530FB000F30FC00F130FD00A3
:10016800FD0BB428FC0BB428FB0BB4288711C00A7C
:100178000319C10A9628C4280130E3005721071241
:10018800061F222987160230D50051220F24CD30B0
:10019800F400CC30F5004C30F6007B30F7007522C7
:1001A8007008B1007108B2007208B3007308B40097
:1001B8000030F4000030F5002030F6008130F70000
:1001C80043230130031C0030F00070080319212973
:1001D8000130E30057210130D5000130D600353019
:1001E800D700D622C001C10180304106F00080301E
:1001F8007002031D0129033040020318212905302C
:10020800FB000F30FC00F130FD00FD0B0929FC0B51
:100218000929FB0B092987170530FB000F30FC0063
:10022800F130FD00FD0B1629FC0B1629FB0B1629D6
:100238008713C00A0319C10AF82827290130E300E7
:100248005721871287132208FC002108FD00230884
:10025800840053088A00540E8300FF0E7F0E0900A5
:0E026800213083120313FD00FD0B382908001E
:100276000F3083120313FC004730FD00FD0B4129AC
:0A028600FC0B4129000000000800F5
:0602900000000000080060
:100296007B15FB1F55290130F300F201F101F00136
:0802A600FA0DF20CFF30080014
:1002AE0083120313E31B5D2988135E298817631BD2
:1002BE006229081363290817E31A67298812682927
:1002CE008816631A6C2908126D29081645187129AB
:1002DE00071472290710071548210711E319792908
:1002EE0088137A29881763197E2908137F2908171E
:1002FE00E31883298812842988166318882908121E
:10030E008929081645188D2907148E2907100715F7
:10031E0048210711451C95293B21962934210800B7
:0E032E00F201F101F001F801F30100300800C6
:08033C00FA1FF2130030080063
:1003440083120313F801F9011030FC00710DF80D4C
:10035400F90D7408F8027508031C750FF9020318E7
:10036400BA297408F80775080318750FF9070310FC
:0A037400F00DF10DFC0BA8290800A4
:0E037E008312031344088A004308820008001B
:10038C008312031345105E08E3005721451408003F
:10039C000E3083120313FD00FD0BD2290000080060
:1003AC00A0017208031DEB297108F2007008F1001E
:1003BC00F001A0157208031DEB297108F200F10180
:1003CC00A011201672080319F9292008F302031D45
:1003DC00031CFD290310F21B012AF00DF10DF20D87
:1003EC00F30BF129FD290130FC009721042A02307E
:0E03FC00FC004B21042A0430FC009E21080066
:10040A00FB14FB1F0F2AFF30F300F200F100F0008B
:08041A00FA0DF20CFF3008009E
:1004220083120313E1010530610203181F2A6108D8
:100432006007840020308000E10A142A6108600706
:1004420084008001E10361086007E2000A30F400E1
:10045200F5015E08F0005F08F100A2217808F000C3
:100462007908F1003030F0076208840070088000DB
:100472000A30F400F5015E08F0005F08F100A221E5
:100482007008DE007108DF0000307106031D4B2A80
:1004920000307006031D4E2A502AE103242A080068
:1004A200831203139F01C0309F0483161F179F17E7
:1004B20083125508F000F00D7010F00D7010F00D61
:1004C200701070089F041F14CE211F151F1D6B2A68
:1004D2000000672A1F101E08F100F00183161E0893
:0804E200F0040030F1040800F1
:1004EA0083120313FB017308031D77080319CC2A2F
:1004FA0072087606FA007708F3077E30031C892A09
:10050A00F3020318CF2A8C2AF302031CD22A720898
:10051A00F8007108FC007008FD00F817F6170310C0
:10052A00F201F101F0011830A0007D1CA62A74081E
:10053A00F00775080318750FF10776080318760F88
:10054A00F207F20CF10CF00CF80CFC0CFD0C031089
:10055A00A00B9A2AF21BB62AF80DF00DF10DF20D36
:10056A00F3037B1B701CC82AF81FC82AF00A031958
:10057A00F10A0319F20A031DC82AF20CF10CF00C55
:10058A00F30A0319CF2AFA1FF2130030D42A0130D2
:10059A009721D42A02300522D42A04304B210000A4
:0205AA00080047
:1005AC00E82A803083120313D500FB2AC030D50013
:1005BC00FB2A9430D500FB2AD430D500FB2A80309E
:1005CC00D500FB2A831203135508013A0319D72AC5
:1005DC005508023A0319DC2A5508033A0319DF2A95
:1005EC005508043A0319E22AE52A5603F000550887
:1005FC00F0077008D5007008E30057214510D801AA
:10060C0058085707840000080319142B580857077B
:10061C0084000008DE00C621D80A062B4514080009
:10062C0083120313550803178D0083168C130C14B7
:08063C0083120C08F000080015
:10064400831603178C1C282B0000222B8312031300
:10065400550803178D000313560803178C008316DF
:100664008C130C150B08F0008B1355308D00AA3039
:100674008D008C14F01B402B8B13412B8B170C110A
:0206840008006C
:1006860083120313FA017308031D7A147708031DF6
:10069600FA147A0803198F2B033A03195A2B7A187E
:1006A600572BF61F8D2B8B2BF21F8B2B8D2B720846
:1006B6008039FA00F21376088039F6137A060319A0
:1006C600682B7A0803198B2B8D2B77087302031975
:1006D6006F2B031C832B872B760872020319762B4C
:1006E600031C832B872B7508710203197D2B031CB2
:1006F600832B872B7408700203198F2B0318872B03
:10070600FA0803198D2B8B2BFA0803198B2B8D2BCB
:10071600031408000310080003140315080008005A
:1007260083120313DA01DB015508DC005608DD00ED
:1007360080305606F00080307002031DA42B003076
:1007460055020318B22B0130DA000030DB005508E1
:10075600003CDC005608031C013EDD01DD025C089E
:10076600DE005D08DF005708E00011220630D800E1
:100776000030D9005908003C031DC32B5808003C23
:100786000318DE2B58085707F20001305802F00014
:100796000030031C013E5902F1007008570784001F
:1007A6000008F00072088400700880000130D8024A
:1007B600031CD903BD2B57088400203080005A083B
:1007C6005B040319FC2BD801D9015808570784008C
:1007D6000008203A031DF32BD80A0319D90AE82B7F
:1007E6000130D802031CD9035808570784002D305E
:0407F6008000080077
:1007FA008312031387110712871287130713D8303E
:10080A008B0040308316810098308312A400A50122
:04081A008101080050
:10081E00831203137008F8007108F000F101F20161
:10082E00F301FB01FC019630F300FA017008F100B0
:0C083E007808F000F801F201D621080053
:10084A00BF218A110A128000840AC30A0319C40A42
:08085A00F003031D252C08002A
:10086200831603130711071008128812081388133E
:1008720083120711071088130813881208123B21EC
:100882003B213B21881608160715482107113B21F9
:100892000715482107113B210715482107113B2164
:1008A20008120715482107113B2107154821071196
:1008B200881288170715482107113B21881308164B
:1008C20007154821071108120715482107113B2176
:1008D20007154821071108160715482107113B2162
:1008E20008120715482107118817081788160816D5
:0C08F2000715482107113B2145140800A0
:1008FE00FF3083120313D000FF30D100FF30D2003F
:10090E00FF309F01C0309F0483161F179F1783125D
:04091E001F1408009A
:1009220083120313A401A5014230A6006930A70077
:100932006530A8006E30A9007630AA006530AB00A1
:100942006E30AC007530AD006530AE002130AF00C6
:10095200B001B101B201B301B4014230B50052306D
:10096200B6004130B7005630B8004F30B9002130E0
:10097200BA00BB01BC01BD01BE01BF01C001C10182
:10098200C2018316871107128712871307130710F4
:100992000711081288120813881331247F24C20118
:0609A200FD23D22CD32C32
:02400E007A3BFB
:00000001FF
