:02000000FB2DD6
:06000600000000000800EC
:10000C000F3083120313FC004730FD00FD0B0C284E
:0A001C00FC0B0C2800000000080097
:0E002600213083120313FD00FD0B1728080084
:08003400FA1FF213003008006E
:10003C007B15FB1F28280130F300F201F101F001C0
:08004C00FA0DF20CFF30080070
:0E005400F201F101F001F801F30100300800A3
:10006200A0017208031D46287108F2007008F10011
:10007200F001A0157208031D46287108F200F10173
:10008200A01120167208031954282008F302031D38
:10009200031C58280310F21B5C28F00DF10DF20D21
:1000A200F30B4C2858280130FC002A205F2802302C
:0E00B200FC001E205F280430FC001A2008000D
:0600C000FB15FF300800F3
:1000C6000E3083120313FD00FD0B672800000800A5
:1000D60083120313ED1B71288813722888176D1B72
:1000E6007628081377280817ED1A7B2888127C28AB
:1000F60088166D1A80280812812808164218852845
:10010600071486280710071503200711ED198D28F7
:1001160088138E2888176D199228081393280817B4
:10012600ED1897288812982888166D189C280812AA
:100136009D2808164218A1280714A228071007159B
:1001460003200711421CA9280620AA28132008000C
:10015600FB14FB1FB528FF30F300F200F100F0009E
:08016600FA0DF20CFF30080055
:0E016E008312031346088A0045088200080029
:10017C0083120313F801F9011030FC00710DF80D16
:10018C00F90D7408F8027508031C750FF9020318B1
:10019C00D6287408F80775080318750FF9070310AB
:0A01AC00F00DF10DFC0BC428080053
:1001B600831203136B08F2007208F100F20A6C084E
:1001C600F000EC0A700884000008F0007108840052
:1001D600700880007108840000080319F328DF28DE
:0601E6006B08F0000800A8
:1001EC0083120313F8010830FC00700DF80D74082D
:1001FC00F80203180329F8070310F00DFC0BFB2879
:02020C000800E8
:10020E00831203137008F8007108F000F101F20177
:10021E00F301FB01FC019630F300FA017008F100C6
:0C022E007808F000F801F201312008000F
:10023A00831203139F01C0309F0483161F179F1751
:10024A0083126B08F000F00D7010F00D7010F00DB5
:10025A00701070089F041F1463201F151F1D372973
:10026A00000033291F101E08F100F00183161E0832
:08027A00F0040030F10408005B
:10028200831203137408003A031D5C297508003AAF
:10029200031D5C297608003A031D5C297708003AA1
:1002A200031D5C29FF30F000FF30F1007F30F200C7
:1002B200FF30F300F7298312031377080319EB29A0
:1002C20073080319EE29720876068039FA00F217CC
:1002D200F617A0017208F8007108FC007008FD0012
:1002E2007408FD027508031C750FFC027608031CD6
:1002F200760FF802F801FC01FD01031C87290310A7
:10030200F20CF10CF00CF80C0130A0007708F302AB
:10031200031C91297E302007F3070318F12996293F
:100322007E302007F307031CF4291830FA07FD0D6D
:10033200FC0DF80DF00DF10DF20DA00D7408F00298
:100342007508031C750FF1027608031C760FF20282
:10035200760DA004201CAF297D14BA297408F00779
:1003620075080318750FF10776080318760AF20765
:100372007D10FA031F307A05031D98297B1B7D1C13
:10038200E1290310F00DF10DF20DA00D7408F00239
:100392007508031C750FF1027608031C760FF20232
:1003A200760D20040139FD070318FC0A0319F80A27
:1003B200031DE129F80CFC0CFD0CF30A0319F129C9
:1003C200FA1FF8137808F2007C08F1007D08F000AB
:1003D2000030F62901306020F62902302A20F62961
:0E03E2000430AB20F62908301E200000080071
:1003F00083120313FB017308031D770803194F2AA7
:1004000072087606FA007708F3077E30031C0C2A80
:10041000F3020318522A0F2AF302031C552A72080A
:10042000F8007108FC007008FD00F817F6170310BB
:10043000F201F101F0011830A0007D1C292A740896
:10044000F00775080318750FF10776080318760F83
:10045000F207F20CF10CF00CF80CFC0CFD0C031084
:10046000A00B1D2AF21B392AF80DF00DF10DF20D2B
:10047000F3037B1B701C4B2AF81F4B2AF00A03194D
:10048000F10A0319F20A031D4B2AF20CF10CF00CCD
:10049000F30A0319522AFA1FF2130030572A0130C7
:1004A0002A20572A0230AB20572A04301E20000091
:0204B000080042
:1004B20083120313FA017308031D7A147708031DCC
:1004C200FA147A080319A52A033A0319702A7A182A
:1004D2006D2AF61FA32AA12AF21FA12AA32A7208B3
:1004E2008039FA00F21376088039F6137A06031976
:1004F2007E2A7A080319A12AA32A7708730203190C
:10050200852A031C992A9D2A7608720203198C2ACD
:10051200031C992A9D2A750871020319932A031C48
:10052200992A9D2A740870020319A52A03189D2A84
:10053200FA080319A32AA12AFA080319A12AA32A4D
:100542000314080003100800031403150800080030
:100552008312031342106B08ED006B204214080053
:10056200C32A803083120313DE00D62AC030DE0095
:10057200D62A9430DE00D62AD430DE00D62A803045
:10058200DE00D62A831203135E08013A0319B22A47
:100592005E08023A0319B72A5E08033A0319BA2A17
:1005A2005E08043A0319BD2AC02A5F03F0005E0800
:1005B200F0077008DE007008ED006B204210E101C8
:1005C20061086007840000080319EF2A61086007C8
:1005D20084000008EB00A922E10AE12A4214080083
:1005E20083120313B20A0319B30A00303302031D44
:1005F200FC2A3C303202031C1A2BB201B301B00AAE
:100602000319B10A00303102031D092B3C303002BC
:10061200031C1A2BB001B101AE0A0319AF0A003054
:100622002F02031D162B18302E02031C1A2BAE01AB
:10063200AF010A30F4000030F5002E08F0002F0858
:10064200F100BE2030307007A5000A30F4000030FF
:10065200F5002E08F0002F08F100BE207808F00007
:100662007908F10030307007A6000A30F40000303B
:10067200F5003008F0003108F100BE20303070077C
:10068200A8000A30F4000030F5003008F00031080C
:10069200F100BE207808F0007908F10030307007D0
:1006A200A9000A30F4000030F5003208F0003308E7
:1006B200F100BE2030307007AB000A30F400003089
:1006C200F5003208F0003308F100BE207808F0008F
:0C06D2007908F10030307007AC0008001F
:1006DE0083120313E901EA015E08E5005F08E600F4
:1006EE006008E7006108E8006808FF3A031D892BDF
:1006FE006708FF3A031D892B6608FF3A031D892BF5
:10070E006508FF3A031D932B6208EB003E30EC00A8
:10071E00DB200330F000682D0130E300E71FA22B31
:10072E0080306706F0007008E700E30A6208840074
:10073E002D308000E20A0030F0006806031DB12B58
:10074E0070086706031DB12B70086606031DB12BDA
:10075E006508003A031DBA2B6208EB003430EC003A
:10076E00DB20F001682D6808FF3A031DC82B6708CF
:10077E00003A031DC82B6608003A031DC82B6508F6
:10078E00003A031DD22B6208EB002130EC00DB2077
:10079E006308F000682D0030F4000030F5000030E2
:1007AE00F6007F30F7006508F0006608F100670874
:1007BE00F2006808F3005922013003180030F000EF
:1007CE0070080319052C6508F0006608F10067082B
:1007DE00F2006808F3000030F4000030F50020301D
:1007EE00F6008230F700F8217008E5007108E60087
:1007FE007208E7007308E800EA03D22B0030F40019
:10080E000030F5002030F6008230F7006508F00069
:10081E006608F1006708F2006808F30059220130FB
:10082E00031C0030F00070080319382C6508F00026
:10083E006608F1006708F2006808F300CD30F40096
:10084E00CC30F5004C30F6007B30F700F821700804
:10085E00E5007108E6007208E7007308E800EA0A8E
:10086E00052CFF306505F800FF306605F9007F3076
:10087E006705FA0000306805FB007808F400790877
:10088E00F5007A08F6007B08F700F40DF50DF60D6D
:10089E00F70D741000306505F00000306605F100AC
:1008AE0000306705F200FF306805F3007008E500C0
:1008BE007108E6007208E7007308E8007408650422
:1008CE00F00075086604F10076086704F2007708F8
:1008DE006804F3007008E5007108E6007208E7008E
:1008EE007308E8007F306802F0007008E400013001
:1008FE00E8007008F4006508F0006608F10067086B
:10090E00F2006808F30074080319942CF00DF10D31
:10091E00F20DF30D7010FF3E8B2C7008E500710880
:10092E00E6007208E7007308E8006808303EF00041
:10093E006208840070088000E20A80306A06F000C7
:10094E008030013A7002031CB52C8030063AF0005C
:10095E0080306A067002031CB52CBC2C6208840021
:10096E002E308000E20A0130E9000630E40064080F
:10097E00003A03191A2DE8016508F0006608F10027
:10098E006708F2006808F300F00DF10DF20DF30D9B
:10099E007010F00DF10DF20DF30D70106508F007EB
:1009AE0066080318660FF10767080318670FF2074A
:1009BE0068080318680FF3077008E5007108E60071
:1009CE007208E7007308E8006508F0006608F10099
:1009DE006708F2006808F300F00DF10DF20DF30D4B
:1009EE0070107008E5007108E6007208E7007308E1
:1009FE00E8006808303EF00062088400700880004D
:100A0E00E20A6908003A031D182DEA036A08003A43
:100A1E00031D182D620884002E308000E20A01307A
:100A2E00E900E403BE2CFF30620784000008303A70
:100A3E00031D232DE2031A2DFF30620784000008E8
:100A4E002E3A031D2B2DE2036A08003A0319642D7A
:100A5E006208840065308000E20A80306A06F00089
:100A6E008030003A70020318442D620884002D3045
:100A7E008000E20A6A08003CEA006A08E4006A089C
:100A8E00093C0318562D0A30F4006408F000F620D5
:100A9E003030F0076208840070088000E20A0A30E5
:100AAE00F4006408F000F6207808F0003030F0070B
:100ABE006208840070088000E20A620884008001E7
:040ACE00F00108002B
:100AD20083120313EB011D2170088312C3007108F6
:100AE200C40007210030F4000030F5002030F60089
:100AF2008130F700F8210030F400C030F5007F307B
:100B0200F6008830F70041210030F4000030F50093
:0C0B12004830F6008530F700F82108009C
:100B1E00FF3083120313DB00FF30DC00FF30DD00FB
:100B2E00FF309F01C0309F0483161F179F1783123B
:040B3E001F14080078
:100B4200831603130711071008128812081388135B
:100B5200831207110710881308138812081206203F
:100B620006200620881608160715032007110620FE
:100B72000715032007110620071503200711062079
:100B82000812071503200711062007150320071175
:100B920088128817071503200711062088130816E4
:100BA2000715032007110812071503200711062055
:100BB2000715032007110816071503200711062041
:100BC2000812071503200711881708178816081638
:0C0BD2000715032007110620421408003C
:100BDE00B7208A110A128000840AC50A0319C60AB0
:080BEE00F003031DEF2D0800C8
:100BF600922683160313871107128712071307100D
:100C060007110812881208138813A1250130ED0078
:100C16006B200C30ED006B208F2587110712871291
:100C26000713F12269257008D7007108D8007208E9
:100C3600D9007308DA007008DE007108DF00720858
:100C4600E0007308E1004730E2006F230130DE0068
:100C56000130DF003630E000B1220130DE0007301F
:100C6600DF004730E000B1220130DE000330DF0054
:100C76003C30E000B1225708F4005808F500590846
:100C8600F6005A08F7000030F0000030F10060303E
:100C9600F2008330F3005922013003180030F000CF
:100CA60070080319592E071787155B2E071387112E
:100CB6000B30FB002630FC005D30FD00FD0B612E85
:100CC600FC0B612EFB0B612E00000000142E6A2E19
:100D240021308400213083120313F0007030C50099
:080D34000630C600EF2508009F
:080CE00049344E34463400345F
:100CE800303430343A34303430343A3430343034C8
:020CF8000034C6
:040CFA000F3400347F
:040CFE001E3400346C
:040D02001E34003467
:040D06003034003451
:0C0D0A00543465346D3470343A340034D5
:040D1600433400342E
:080D1A004E3461344E34003404
:02400E007A3BFB
:00000001FF
