:020000005B2B78
:10000800FF00030E8301C8000A08C9008A017C08A2
:10001800A2007D08A1000408A3008B1C3028AA0AAE
:100028000319AB0A87170130CA000130CB002C3006
:10003800CC00AF221F30FB007130FC001E30FD00E9
:10004800FD0B2428FC0B2428FB0B24280000871315
:100058000130CF001B218B100B1CF728861E8E2821
:1000680007160130CA003B22C4210030F4000030DA
:10007800F5000030F6007E30F700DA217008A400A1
:100088007108A5007208A6007308A7007008F4009C
:100098007108F5007208F6007308F7000030F000E8
:1000A8000030F1001630F2008630F3005F22013094
:1000B80003180030F000700803198D28A801A90161
:1000C80080302906F00080307002031D6D2803304F
:1000D800280203188D280530FB000F30FC00F13092
:1000E800FD00FD0B7528FC0B7528FB0B7528871583
:1000F8000530FB000F30FC00F130FD00FD0B8228BD
:10010800FC0B8228FB0B82288711A80A0319A90A6D
:10011800642893280130CF001B2107128711061F7E
:10012800F12887160230CA003B22C421CD30F400E2
:10013800CC30F5004C30F6007B30F700DA2170083F
:10014800BE007108BF007208C0007308C10000300B
:10015800F4000030F5002030F6008130F7005F220F
:100168000130031C0030F00070080319F02801303A
:10017800CF001B210130CA000130CB003730CC0042
:10018800AF22A801A90180302906F0008030700252
:10019800031DD028033028020318F0280530FB007F
:1001A8000F30FC00F130FD00FD0BD828FC0BD828DF
:1001B800FB0BD82887170530FB000F30FC00F13007
:1001C800FD00FD0BE528FC0BE528FB0BE528871354
:1001D800A80A0319A90AC728F6280130CF001B214D
:1001E800871287130B102208FC002108FD00230842
:1001F800840049088A00480E8300FF0E7F0E09001C
:0E020800213083120313FD00FD0B08290800AE
:06021600000000000800DA
:10021C000F3083120313FC004730FD00FD0B142933
:0A022C00FC0B14290000000008007C
:1002360083120313CF1B21298813222988174F1BEA
:100246002629081327290817CF1A2B2988122C29A3
:1002560088164F1A302908123129081647183529E9
:1002660007143629071007150B210711CF193D2949
:1002760088133E2988174F1942290813432908175E
:10028600CF1847298812482988164F184C29081272
:100296004D29081647185129071452290710071522
:1002A6000B210711471C59290E215A290421080040
:0E02B600F201F101F001F801F301003008003F
:0802C400FA1FF21300300800DC
:1002CC007B15FB1F70290130F300F201F101F001E5
:0802DC00FA0DF20CFF300800DE
:0E02E4008312031343088A00420882000800B8
:1002F200A0017208031D8E297108F2007008F10036
:10030200F001A0157208031D8E297108F200F10197
:10031200A0112016720803199C292008F302031D5C
:10032200031CA0290310F21BA429F00DF10DF20DFC
:10033200F30B9429A0290130FC005B21A72902308C
:0E034200FC006621A7290430FC00622108009F
:10035000FB14FB1FB229FF30F300F200F100F000A4
:08036000FA0DF20CFF30080059
:100368008312031347104E08CF001B2147140800BF
:100378000E3083120313FD00FD0BC0290000080096
:10038800831203137008F8007108F000F101F201FC
:10039800F301FB01FC019630F300FA017008F1004B
:0C03A8007808F000F801F201792108004B
:1003B40083120313FB017308031D77080319312A01
:1003C40072087606FA007708F3077E30031CEE29DC
:1003D400F3020318342AF129F302031C372A7208A2
:1003E400F8007108FC007008FD00F817F6170310F8
:1003F400F201F101F0011830A0007D1C0B2A7408F1
:10040400F00775080318750FF10776080318760FBF
:10041400F207F20CF10CF00CF80CFC0CFD0C0310C0
:10042400A00BFF29F21B1B2AF80DF00DF10DF20DA4
:10043400F3037B1B701C2D2AF81F2D2AF00A0319C5
:10044400F10A0319F20A031D2D2AF20CF10CF00C27
:10045400F30A0319342AFA1FF2130030392A01303F
:100464005B21392A0230A821392A04306621000090
:0204740008007E
:10047600831203139F01C0309F0483161F179F1713
:1004860083124A08F000F00D7010F00D7010F00D98
:10049600701070089F041F14BC211F151F1D552ABC
:1004A6000000512A1F101E08F100F00183161E08D5
:0804B600F0040030F10408001D
:1004BE0083120313FA017308031D7A147708031DC0
:1004CE00FA147A080319AB2A033A0319762A7A1812
:1004DE00732AF61FA92AA72AF21FA72AA92A720889
:1004EE008039FA00F21376088039F6137A0603196A
:1004FE00842A7A080319A72AA92A770873020319EE
:10050E008B2A031C9F2AA32A760872020319922AA9
:10051E00031C9F2AA32A750871020319992A031C2A
:10052E009F2AA32A740870020319AB2A0318A32A60
:10053E00FA080319A92AA72AFA080319A72AA92A29
:10054E000314080003100800031403150800080024
:10055E00C12A803083120313CA00D42AC030CA00C5
:10056E00D42A9430CA00D42AD430CA00D42A803077
:10057E00CA00D42A831203134A08013A0319B02A77
:10058E004A08023A0319B52A4A08033A0319B82A47
:10059E004A08043A0319BB2ABE2A4B03F0004A0844
:1005AE00F0077008CA007008CF001B214710CD015C
:1005BE004D084C07840000080319ED2A4D084C071E
:1005CE0084000008CE00B421CD0ADF2A47140800AB
:1005DE0083160313071107100812881208138813C5
:1005EE0083120711071088130813881208120E21A0
:1005FE000E210E218816081607150B2107110E2144
:10060E0007150B2107110E2107150B2107110E21BE
:10061E00081207150B2107110E2107150B210711C3
:10062E008812881707150B2107110E21881308163B
:10063E0007150B210711081207150B2107110E21A3
:10064E0007150B210711081607150B2107110E218F
:10065E00081207150B210711881708178816081698
:0C066E0007150B2107110E21471408008E
:10067A00FF3083120313C400FF30C500FF30C600E9
:10068A00FF309F01C0309F0483161F179F178312E4
:04069A001F14080021
:10069E0072218A110A128000840AC20A0319C30A3F
:0806AE00F003031D4F2B0800AF
:1006B60083120313A401A501A601A701A801A9019C
:1006C600AA01AB014230AC006930AD006530AE0026
:1006D6006E30AF007630B0006530B1006E30B200DB
:1006E6007530B3006530B4002130B500B601423034
:1006F600B7005230B8004130B9005630BA004F301A
:10070600BB002130BC00BD01BE01BF01C001C1015B
:10071600831687110712871287130713071007110D
:100726000812881208138813EF223D238711071237
:10073600871287130713D8308B0083160117A22B55
:02074600A32BE3
:02400E007A3BFB
:00000001FF
